:020000040800F2
:10000000C018002065190008E9480008F5480008F4
:10001000014900080D4900081949000800000000C6
:10002000000000000000000000000000254900085A
:1000300031490008000000003D490008B9480008A7
:10004000C1190008C1190008C1190008C119000828
:10005000C1190008C1190008C1190008C119000818
:10006000C1190008C1190008C1190008C119000808
:10007000C1190008C1190008C1190008C1190008F8
:10008000C1190008C1190008C1190008C1190008E8
:10009000C1190008C1190008C1190008C1190008D8
:1000A000C1190008C1190008C1190008C1190008C8
:1000B000C1190008C1190008C1190008C1190008B8
:1000C000C1190008C1190008C1190008C1190008A8
:1000D000C1190008C1190008B1240008C11900089D
:1000E000C1190008C11900085D490008C1190008BC
:1000F000C1190008C1190008C1190008C119000878
:10010000C1190008C1190008C1190008C119000867
:10011000C1190008C1190008C1190008C119000857
:10012000C1190008C1190008C1190008C119000847
:10013000C1190008C1190008C1190008C119000837
:10014000C1190008C1190008C1190008494900086F
:10015000C1190008C1190008C1190008C119000817
:10016000C1190008C1190008C1190008C119000807
:10017000C1190008C1190008C1190008C1190008F7
:10018000C1190008C119000880B485B000AF7860BB
:100190000023FB607B68DB684FF0FF325A607B68AE
:1001A000DB684FF0FF325A61FB7B43F08003FB7347
:1001B0007B7B43F008037B737B68DB68FA689A619A
:1001C00000BF1437BD4680BC704700BF80B586B005
:1001D00000AF78600023FB7400237B610023FB6089
:1001E000032002F07BFE7B68DB681B69FB607B6998
:1001F00001337B617B69184A934201D9002326E0D1
:10020000FB68C3F3C073DBB2002BE9D000237B6132
:10021000FB6843F00103FB607B68DB68FA681A61E6
:100220007B68DB681B69FB607B6901337B617B69F1
:10023000094A934206D8FB68C3F30003DBB2012BE3
:10024000EED000E000BF032002F048FEFB7C184621
:100250001837BD4680BD00BF400D030080B489B093
:1002600000AFF860B96011461A460B46FB711346A1
:10027000BB800023FB76FB68DB78002B22D10023B8
:100280007B610023FB61BB880333002B00DA03335F
:100290009B107B61FB79FA6832339B0013449B68A7
:1002A0003B610023FB6109E0BB681A683B691A6087
:1002B000FB690133FB61BB680433BB60FA697B698E
:1002C0009A42F1D3FB7E18462437BD4680BC704766
:1002D00080B489B000AFF860B9601346FB8000239A
:1002E000FB61FB880333002B00DA03339B10BB61F7
:1002F000FB68D3F8D0307B610023FB6109E07B69A8
:100300001A68BB681A60FB690133FB61BB68043380
:10031000BB60FA69BB699A42F1D3BB6818462437BF
:10032000BD4680BC704700BF80B487B000AF786026
:100330000B46FB7000233B610023FB737B680022AC
:10034000DA707B6801229A707B6840229A80FB7881
:10035000012B13D14FF0A0433B617B680122DA727D
:100360007B6808221A707B6804225A707B684FF4FD
:10037000A072DA807B6802221A7211E0FB78002BEF
:100380000ED1454B3B617B680022DA727B680C2200
:100390001A707B6806225A707B684FF4A062DA807C
:1003A0003A697B68DA603B6903F500631A467B684B
:1003B0001A6100237B611CE07B695A013B6913448D
:1003C00003F5106319467A687B6904339B00134474
:1003D00099607B695A013B69134403F53063194600
:1003E0007A687B6914339B00134459607B6901333D
:1003F0007B617B685B781A467B699A42DCD83B69F3
:1004000003F580631A467B685A613B6903F588638C
:100410001A467B68C3F8CC2000237B610FE07B6920
:100420005A013B69134403F5A06319467A687B6956
:1004300022339B00134499607B6901337B617B68A5
:100440001B781A467B699A42E9D800237B610FE04A
:100450007B691A033B69134403F5805319467A6894
:100460007B6932339B00134499607B6901337B6164
:100470007B681B781A467B699A42E9D83B6903F589
:1004800060631A467B68C3F80C21FB7B18461C3757
:10049000BD4680BC704700BF0000044080B588B0F6
:1004A00000AF78600023FB770023BB6100237B61F2
:1004B0000023FB607B681B7A012B4FD17B68DB68D4
:1004C0009B6B7B61BB7D6FF30003BB757B685B7AC5
:1004D000002B03D0BB7D43F01003BB757B68DB684A
:1004E0007A699A630023BB617B68DB68DB68BB6168
:1004F0003B7E6FF386133B76BB7E6FF38613BB7632
:100500003B7E43F010033B763B7E6FF3C3033B76A9
:100510003B7E6FF3C7133B76BB7E6FF34103BB7625
:10052000BB7E6FF3C303BB767B68DB68BA69DA60B6
:100530007868FFF74BFE7B68DB78012B40F0828008
:100540003B7B052262F344033B733B7B43F0200378
:100550003B737B68DB68FA689A6073E07B68DB68F2
:10056000DB68BB613B7E43F040033B767B68DB6826
:10057000BA69DA607868FFF729FE00237B61BB7DEA
:1005800043F00103BB757B681B7A032B03D1BB7D52
:1005900043F00203BB75BB7D43F00403BB75BB7D19
:1005A00043F00803BB75BB7D43F02003BB757B683C
:1005B0005B7A002B03D0BB7D43F01003BB757B68D7
:1005C000DB687A699A63142002F0ACFC7B68DB6814
:1005D000DB68BB617B681B7A032B03D1BB7E43F0D6
:1005E0000103BB767B68DB68BA69DA607B681B7ADB
:1005F000032B27D17B68DB681B6B3B61FB7C0122F3
:1006000062F38303FB74BB7C6FF3C713BB74FB7C87
:1006100043F01003FB74BB7C2D2262F30603BB7412
:100620007B68DB683A691A63C82002F07BFCBB7CFC
:1006300043F08003BB747B68DB683A691A63C820A7
:1006400002F070FC7B68DB78012B10D17B68DB68E3
:100650009B68FB603B7B052262F344033B733B7B5F
:1006600043F020033B737B68DB68FA689A60FB7F8A
:1006700018462037BD4680BD80B485B000AF786095
:100680000023FB730023BB603B7A43F001033B7202
:100690007B68DB687A68D2689168BA680A439A60B6
:1006A000FB7B18461437BD4680BC704780B485B0CC
:1006B00000AF78600023FB730023BB603B7A43F0FC
:1006C00001033B727B68DB687A68D2689168BA681C
:1006D000D2430A409A60FB7B18461437BD4680BC63
:1006E000704700BF80B586B000AF786039600023E6
:1006F000FB7400237B610023FB60FB6843F0200355
:10070000FB603B68DBB203F01F03DAB2FB6862F305
:100710008A13FB607B68DB68FA681A617B68DB68B8
:100720001B69FB607B6901337B617B69094A9342EA
:1007300006D8FB68C3F34013DBB2012BEED000E018
:1007400000BF032002F0CAFBFB7C18461837BD46E9
:1007500080BD00BF400D030080B586B000AF78605B
:100760000023FB7400237B610023FB60FB6843F0E4
:100770001003FB607B68DB68FA681A617B68DB68E2
:100780001B69FB607B6901337B617B69094A93428A
:1007900006D8FB68C3F30013DBB2012BEED000E0F8
:1007A00000BF032002F09AFBFB7C18461837BD46B9
:1007B00080BD00BF400D030080B584B000AF7860FD
:1007C0000B46FB700023FB737B68DB68DB68BB6058
:1007D000FB7A6FF34513FB72FB7A6FF38613FB72A0
:1007E000FB78012B04D1FB7A43F02003FB7206E077
:1007F000FB78002B03D1FB7A43F04003FB727B684C
:10080000DB68BA68DA60322002F08CFBFB7B1846AA
:100810001037BD4680BD00BF80B483B000AF7860A4
:100820007B68DB685B6903F0010318460C37BD4643
:1008300080BC704780B582B000AF78607868FFF701
:10084000EBFF0346012B14BF01230023DBB2184644
:100850000837BD4680BD00BF80B485B000AF78606A
:100860000023FB607B68DB685B69FB607B68DB689F
:100870009B69FA681340FB60FB6818461437BD4655
:1008800080BC704780B485B000AF78600B46FB70C9
:100890007B681B691B68FB60FB7803F00303DAB21B
:1008A0003B7B62F301033B737B681B69FA681A6048
:1008B00000BF1437BD4680BC704700BF80B58CB008
:1008C00000AF7860002387F82B3000237B62002381
:1008D0003B620023FB610023BB6100237B617B68DB
:1008E000D3F80C3100221A607B681B691B683B62DD
:1008F00097F821306FF3C40387F821307B681B69B8
:100900003A6A1A607B68DB7A012B33D1032178685D
:10091000FFF7B8FF7B68DB6880225A624023FB83C5
:100920008023BB837B68DB68FA699A62BA8BFB8B96
:1009300013449BB23B8380237B837B68DB68BA696B
:10094000C3F804213A8B7B8B13449BB23B83002377
:100950007B837B68DB68BA69C3F808213A8B7B8BA1
:1009600013449BB23B8300237B837B68DB68BA69BB
:10097000C3F80C2110217868FFF7B4FE7868FFF700
:10098000EBFE7B681B6900221A617B681B690022F1
:100990005A617B681B694FF0FF329A617B681B6963
:1009A0000022DA610023FB623AE07A68FB6A0433D2
:1009B0009B0013449B681B687B6297F8273023F0E9
:1009C0007F03DBB2002B0ED000237B6297F8273029
:1009D00043F0400387F8273097F8273043F00803A7
:1009E00087F8273001E000237B627A68FB6A0433D2
:1009F0009B0013449B687A6A1A607A68FB6A043326
:100A00009B0013449B6800221A617A68FB6A0433D6
:100A10009B0013449B68FF229A60FB6A0133FB62D0
:100A20007B685B781A46FB6A9A42BED80023FB6259
:100A300035E07A68FB6A14339B0013445B681B68DB
:100A4000FB60FB7B23F07F03DBB2002B0AD000238B
:100A5000FB60FB7B43F04003FB73FB7B43F008032D
:100A6000FB7301E00023FB607A68FB6A14339B0090
:100A700013445B68FA681A607A68FB6A14339B0057
:100A800013445B6800221A617A68FB6A14339B0086
:100A900013445B68FF229A60FB6A0133FB627B6848
:100AA0005B781A46FB6A9A42C3D800237B617B7D40
:100AB00043F001037B757B681B697A6812691169D1
:100AC0007A69D24311407A690A431A617B68DB78FC
:100AD000012B1BD100233B613B7C43F001033B74A2
:100AE0003B7C43F002033B743B8A402262F38A035F
:100AF0003B82BB7C43F00103BB747B8A402262F3E0
:100B000049037B827B681B693A691A63786800F045
:100B100007F897F82B3018463037BD4680BD00BF28
:100B200080B584B000AF78600023FB730023BB6006
:100B30007B68DB6800229A617B68DB684FF0FF32DC
:100B40005A617868FFF720FB7B68DB78002B03D1C4
:100B50003B7A43F010033B727B7A43F008037B72CD
:100B60007B7A43F010037B727B7A43F020037B7225
:100B7000BB7A43F00403BB72BB7A43F00803BB7239
:100B80003B7A43F008033B72BB7A43F01003BB721D
:100B9000BB7A43F02003BB727B68DB687A68D2685B
:100BA0009169BA68D2431140BA680A439A61FB7BE3
:100BB00018461037BD4680BD80B485B000AF786060
:100BC0000023FB737B681B699B68BB603B7AC3F3A4
:100BD0004103DBB2022B09D0032B04D0012B02D03E
:100BE0000323FB7305E00223FB7302E00123FB7385
:100BF00000BFFB7B18461437BD4680BC704700BF62
:100C000080B487B000AF78600023FB750023BB6021
:100C10007B681B699B683B617B689B691B68FB6009
:100C20003B7CC3F34103DBB2022B04D0BB896FF3DF
:100C30000A03BB8105E0BB89032262F30A03BB817F
:100C400000BF7B689B69FA681A607B7A43F00103F6
:100C50007B727B681B697A6812695168BA68D243F3
:100C60001140BA680A435A60FB7D18461C37BD46DE
:100C700080BC704780B487B000AF786039600023D3
:100C8000FB740023FB600023BB603B685B78012B97
:100C90000FD13B681B787A6804339B0013449B6830
:100CA0007B613B681B781A46012393409BB23B81D2
:100CB0000EE03B681B787A6814339B0013445B6832
:100CC0007B613B681B781A46012393409BB27B8172
:100CD0007B691B68FB607B7B23F07F03DBB2002B0F
:100CE00027D13B689B689BB2C3F30A039AB2BB89C6
:100CF00062F30A03BB813B68DB7803F00303DAB2DB
:100D0000BB7B62F38303BB733B68DB88DBB203F01E
:100D10000F03DAB2FB8962F38913FB81FB7B43F09B
:100D20001003FB737B7B43F080037B73FA687B6962
:100D30001A607B681B697A681269D169BA680A43CC
:100D4000DA61FB7C18461C37BD4680BC704700BF8B
:100D500080B487B000AF786039600023FB74002353
:100D6000FB600023BB603B685B78012B0FD13B68C5
:100D70001B787A6804339B0013449B687B613B6853
:100D80001B781A46012393409BB23B810EE03B68DF
:100D90001B787A6814339B0013445B687B613B6863
:100DA0001B781A46012393409BB27B817B7B6FF3B8
:100DB000C7137B73FA687B691A607B681B697A6862
:100DC0001269D169BA68D2430A40DA61FB7C1846DD
:100DD0001C37BD4680BC704780B588B000AF7860D6
:100DE00039600023FB770023BB6100237B61002374
:100DF0003B613B685B78012B40F0AB803B681B7824
:100E00007A6804339B0013449B681B687B613B68D2
:100E10001B787A6804339B0013449B681B693B6111
:100E20003B685B69002B09D13B696FF312033B619F
:100E30007B8A012262F3CC037B8222E03B685B6900
:100E4000C3F312023B6962F312033B613B685A69C8
:100E50003B689B6813445A1E3B689B68B2FBF3F3E4
:100E60009BB2C3F309039AB27B8A62F3CC037B8201
:100E70003B68DB78012B04D1FB7C012262F3461333
:100E8000FB743B681B787A6804339B0013449B68AF
:100E90003A691A617B68DB78012B0AD13B681B78C1
:100EA0007A6804339B0013449B683A6812695A615C
:100EB00015E03B68DB78012B11D03B685B69002BA8
:100EC0000DD03B681B781A4601239340BB617B68B9
:100ED0001B697A681269516BBA690A435A633B68A5
:100EE000DB78012B14D17B681B699B68FB60FB6876
:100EF000C3F30D239BB203F00103002B04D1FB7D50
:100F000043F02003FB7503E0FB7D43F01003FB750A
:100F1000FB7D43F00403FB75FB7D43F08003FB7511
:100F20003B681B787A6804339B0013449B687A699A
:100F30001A603B68DB78012B40F089803B68D968F8
:100F40003B681A783B685B699BB27868FFF786F963
:100F50007DE03B681B787A6814339B0013445B6820
:100F60001B687B613B681B787A6814339B001344D1
:100F70005B681B693B613B685B69002B0DD13B687B
:100F80009B68C3F312023B6962F312033B617B8AE5
:100F9000012262F3CC037B8220E03B685A693B6804
:100FA0009B6813445A1E3B689B68B2FBF3F39BB2E9
:100FB000C3F309039AB27B8A62F3CC037B827B8AF8
:100FC000C3F3C9039BB21A463B689B6803FB02F359
:100FD000C3F312023B6962F312033B613B681B7867
:100FE0007A6814339B0013445B683A691A617B6822
:100FF000DB78012B09D13B681B787A6814339B009E
:1010000013445B683A6812695A613B68DB78012BCC
:101010000CD13B685B79002B04D0FB7D43F02003AF
:10102000FB7503E0FB7D43F01003FB75FB7D43F094
:101030000403FB75FB7D43F08003FB753B681B7865
:101040007A6814339B0013445B687A691A60FB7FEB
:1010500018462037BD4680BD80B489B000AF7860A7
:1010600039600023FB770023BB6100233B61002331
:10107000BB603B685B78012B70D17B689B697B61AF
:101080007B691B683B617B691B69BB603B685B6973
:10109000002B09D13B7A6FF306033B72BB7A012226
:1010A00062F3C403BB7223E03B685A693B689B68E8
:1010B0009A420ED93B689A683B685A613B689B68C4
:1010C000DBB203F07F03DAB23B7A62F306033B72D2
:1010D00009E03B685B69DBB203F07F03DAB23B7A7D
:1010E00062F306033B72BB7A012262F3C403BB7254
:1010F000BA687B691A617B68DB78012B09D13B6890
:101100001B787A6804339B0013449B683A68126921
:101110005A61FB7C43F00403FB74FB7C43F08003C7
:10112000FB743A697B691A607B68DB78002B76D1A7
:101130003B685B69002B72D03B681B781A46012321
:1011400093401A46BB691343BB617B681B697A688D
:101150001269516BBA690A435A6360E03B681B78B5
:101160007A6814339B0013445B681B683B613B68DF
:101170001B787A6814339B0013445B681B69BB605F
:101180003B685B69002B0FD13B689B68DBB203F0C7
:101190007F03DAB23B7A62F306033B72BB7A012229
:1011A00062F3C403BB7212E03B689A683B685A6101
:1011B0003B689B68DBB203F07F03DAB23B7A62F3F1
:1011C00006033B72BB7A012262F3C403BB723B6825
:1011D0001B787A6814339B0013445B68BA681A6101
:1011E0007B68DB78012B09D13B681B787A68143364
:1011F0009B0013445B683A6812695A61FB7C43F0B8
:101200000403FB74FB7C43F08003FB743B681B7896
:101210007A6814339B0013445B683A691A60FB7F59
:1012200018462437BD4680BC704700BF80B487B0E5
:1012300000AF786039600023FB750023FB603B68DA
:101240005B78012B1CD13B681B787A6804339B00C8
:1012500013449B683B613B691B68FB60FB7B23F08D
:101260007F03DBB2002B03D0FB7B43F04003FB7317
:10127000BB7B43F02003BB73FA683B691A6011E043
:101280003B681B787A6814339B0013445B683B61AE
:101290003B691B68FB60BB7B43F02003BB73FA68B0
:1012A0003B691A60FB7D18461C37BD4680BC704701
:1012B00080B487B000AF786039600023FB740023EE
:1012C000FB603B685B78012B08D13B681B787A6830
:1012D00004339B0013449B687B6107E03B681B78E9
:1012E0007A6814339B0013445B687B617B691B68DD
:1012F000FB60BB7B6FF34513BB733B68DB78032B51
:1013000003D03B68DB78022B03D1FB7B43F0100357
:10131000FB73FA687B691A60FB7C18461C37BD4674
:1013200080BC704780B485B000AF78607B681B6973
:101330009B69FB607B681B69DB69FA681340FB6093
:10134000FB681B0C18461437BD4680BC704700BFB5
:1013500080B485B000AF78600B46FB70FB787A688C
:1013600014339B0013445B689B68FB607B681B69BC
:101370005B69FA681340FB60FB6818461437BD468A
:1013800080BC704780B485B000AF78607B681B6913
:101390009B69FB607B681B69DB69FA681340FB6033
:1013A000FB689BB218461437BD4680BC704700BF2F
:1013B00080B487B000AF786000233B61FB7C43F0D2
:1013C000C003FB74BB7C012262F3C403BB743B7C8F
:1013D000182262F306033B747B685B6D3A691A61FD
:1013E0007B68DB78012B16D10023FB607B685B6D8B
:1013F0007A6802F5B9625A617B685B6D1B68FB60B5
:10140000FB7B43F08003FB734FF08023FB607B6822
:101410005B6DFA681A6000BF1C37BD4680BC704720
:1014200080B485B000AF78607B689B7A002B1BD0BE
:101430007B681B699B68FB603B7B03F00103DBB2AD
:10144000002B11D07B6803F586731B68BB603B7A69
:101450006FF341033B723B7A6FF300033B727B688F
:10146000D3F80C31BA681A6000BF1437BD4680BC8F
:10147000704700BF80B400AF00BFBD4680BC70475E
:1014800080B483B000AF0346FB71FB79002B02D020
:10149000012B02D002E000BF00E000BF00BF0C370C
:1014A000BD4680BC704700BF80B400AF00BFBD46E2
:1014B00080BC704780B400AF00BFBD4680BC7047A1
:1014C00080B400AF00BFBD4680BC704780B400AFA1
:1014D00000BFBD4680BC704780B400AF00BFBD46B2
:1014E00080BC704780B58AB000AF78603960002357
:1014F0007B6200233B620023FB610023BB617B68AE
:101500001B8A9BB27B627B6A23F440537B623B68FD
:10151000DB881A467B6A13437B627B6A9AB27B68DC
:101520001A827B689B899BB27B627B6A23F4B053EF
:1015300023F00C037B623B689A883B681B8913434A
:101540009AB23B685B8913439BB21A467B6A13438A
:101550007B627B6A9AB27B689A817B689B8A9BB22A
:101560007B627B6A23F440737B623B689B891A46EB
:101570007B6A13437B627B6A9AB27B689A8207F12B
:101580000803184600F0BAFC7B68304A934203D047
:101590007B682F4A934202D17B693B6201E03B6941
:1015A0003B627B689B899BB21BB2002B0CDA3A6AC8
:1015B00013469B0013449A001A443B681B685B0067
:1015C000B2FBF3F3FB610BE03A6A13469B00134452
:1015D0009A001A443B681B689B00B2FBF3F3FB6163
:1015E000FB691C4AA2FB03235B091B017B627B6A2C
:1015F0001B09642202FB03F3FA69D31ABB617B68FF
:101600009B899BB21BB2002B0CDABB69DB00323327
:10161000104AA2FB03235B0903F007037A6A134312
:101620007B620BE0BB691B0132330A4AA2FB032336
:101630005B0903F00F037A6A13437B627B6A9AB2F9
:101640007B681A8100BF2837BD4680BD001001406D
:10165000001401401F85EB5180B483B000AF786067
:101660000B46FB70FB78002B08D07B689B899BB2F4
:1016700043F400539AB27B689A8107E07B689B89A8
:101680009BB223F400539AB27B689A8100BF0C3757
:10169000BD4680BC704700BF80B483B000AF7860A7
:1016A0000B467B807B88C3F308039AB27B689A80E1
:1016B00000BF0C37BD4680BC704700BF80B487B008
:1016C00000AF78600B467B8013467B7000233B6144
:1016D0000023FB600023BB6000237B617B687B6190
:1016E0007B88DBB25B09DBB23B617B8803F01F03C5
:1016F000FB600122FB6802FA03F3BB603B69012B2C
:1017000003D17B690C337B6109E03B69022B03D178
:101710007B6910337B6102E07B6914337B617B78EA
:10172000002B06D07B697A691168BA680A431A608F
:1017300006E07B697A691168BA68D2430A401A6088
:1017400000BF1C37BD4680BC704700BF80B485B069
:1017500000AF78600B467B800023FB737B681B889F
:101760009AB27B8813409BB2002B02D00123FB73FB
:1017700001E00023FB73FB7B18461437BD4680BC99
:10178000704700BF80B487B000AF78600B467B80A5
:101790000023FB6000237B610023BB600023FB74FC
:1017A0007B88DBB25B09DBB2BB607B8803F01F0385
:1017B0007B6101227B6902FA03F37B61BB68012B29
:1017C00007D17B689B899BB21A467B6913407B617A
:1017D00011E0BB68022B07D17B681B8A9BB21A46BB
:1017E0007B6913407B6106E07B689B8A9BB21A464B
:1017F0007B6913407B617B881B0A9BB2FB600122E3
:10180000FB6802FA03F3FB607B681B889BB21A46F5
:10181000FB681340FB607B69002B05D0FB68002B45
:1018200002D00123FB7401E00023FB74FB7C18460B
:101830001C37BD4680BC704780B485B000AF78606F
:1018400039600023FB600023BB60134B1B68FB6007
:1018500040F6FE727B6802FA03F3DB43FA6813403A
:10186000FB603B681A683B685B681A433B689B688F
:101870001A433B68DB681343BB60BA687B6802FAB3
:1018800003F3FA681343FB60034AFB68136000BF6D
:101890001437BD4680BC70470074004080B483B0EC
:1018A00000AF78600B46FB70FB78002B09D00C4929
:1018B0000B4B1A6801207B6800FA03F313430B609B
:1018C00009E00749064B1A6801207B6800FA03F318
:1018D000DB4313400B6000BF0C37BD4680BC704734
:1018E0000074004080B485B000AF78600B467B8008
:1018F0000023FB60074BFB60FA687B6813440833E6
:10190000FB60FB681A467B88136000BF1437BD4636
:1019100080BC70470074004080B483B000AF786032
:101920000B46FB70FB78002B0AD00D490C4B1A6854
:101930004FF480507B6800FA03F313430B600AE016
:101940000749074B1A684FF480507B6800FA03F38D
:10195000DB4313400B6000BF0C37BD4680BC7047B3
:101960000074004080B582B000AF104B7B60104B1C
:101970003B6007E03B681A1D3A607A68111D796088
:1019800012681A603B680B4A9342F3D30A480B492A
:101990004FF000028842B8BF40F8042BFADB00F099
:1019A0000FFA00BF0837BD4680BD00BF525A00087D
:1019B000000000204001002040010020BC10002059
:1019C00080B400AFFEE700BF80B584B000AFF86020
:1019D0007A603B600B46FB72F86801F00DFAF8681C
:1019E00000F01EF8FB683A68C3F8E025FB68BA69A6
:1019F000C3F8E425FB687A68C3F8E825FB7A194642
:101A0000F86803F047F8FB68D3F8E4351B6898479B
:101A1000F86801F049FA00BF1037BD4680BD00BF2D
:101A200080B483B000AF7860002318460C37BD4601
:101A300080BC704780B584B000AF786007F10803C0
:101A40001946786801F04EFE3B7A03F01F03012B24
:101A50000AD0022B0FD0002B14D107F1080319462E
:101A6000786801F06FFA16E007F108031946786804
:101A700001F0B8FA0FE007F108031946786801F0A1
:101A8000E5FA08E03B7A23F07F03DBB21946786879
:101A900003F090F900BF002318461037BD4680BD03
:101AA00080B584B000AF78600B46FB70FB78002BEC
:101AB00044D17B6803F55C73FB607B6893F811315C
:101AC000032B4ED1FB68DA69FB689B689A4220D9E8
:101AD000FB68DA69FB689B68D21AFB68DA617B688D
:101AE000DB78012B06D1FB68DA68FB689B681A4437
:101AF000FB68DA60FB68D968FB689A68FB68DB6999
:101B0000934228BF13469BB21A46786803F03CFA0A
:101B100027E07B68D3F8E0351B69002B0AD07B688F
:101B200093F81231032B05D17B68D3F8E0351B699C
:101B300078689847786803F03BFA12E07B68D3F83E
:101B4000E0359B69002B0CD07B6893F81231032B96
:101B500007D17B68D3F8E0359B69FA78114678683D
:101B60009847002318461037BD4680BD80B584B025
:101B700000AF78600B46FB70FB78002B5FD17B6871
:101B800003F58C73FB607B6893F81131022B69D1EC
:101B9000FB68DA69FB689B689A421BD9FB68DA69C3
:101BA000FB689B68D21AFB68DA617B68DB78012BE3
:101BB00006D1FB68DA68FB689B681A44FB68DA6048
:101BC000FB68D968FB68DB699BB21A46786803F04A
:101BD000A7F947E0FB681B6AFA689268B3FBF2F169
:101BE00002FB01F29B1A002B14D1FB681A6AFB68F6
:101BF0009B689A420ED3FB681A6AFB685B6A9A423A
:101C000008D200220021786803F08AF9FB680022DC
:101C10005A6227E07B68D3F8E035DB68002B0AD0F6
:101C20007B6893F81231032B05D17B68D3F8E0353C
:101C3000DB6878689847786803F0D2F912E07B682F
:101C4000D3F8E0355B69002B0CD07B6893F8123138
:101C5000032B07D17B68D3F8E0355B69FA7811462E
:101C600078689847002318461037BD4680BD00BFEE
:101C700080B582B000AF78600023402200217868F0
:101C800002F08AFF002340228021786802F084FF5E
:101C90007B68012283F812217B68D3F8E4355B6806
:101CA0007A68927810469847002318460837BD4650
:101CB00080BD00BF80B582B000AF78607B68D3F88C
:101CC000E4351B6998477B68032283F812210023BF
:101CD00018460837BD4680BD80B582B000AF786039
:101CE0007B68042283F812217B68D3F8E435DB6833
:101CF0009847002318460837BD4680BD80B582B09E
:101D000000AF78607B68D3F8E035DB69002B05D045
:101D10007B68D3F8E035DB6978689847002318467C
:101D20000837BD4680BD00BF80B582B000AF786087
:101D30000B46FB707B68D3F8E0351B68FA781146D8
:101D4000786898477B68D3F8E4359B689847002308
:101D500018460837BD4680BD80B582B000AF7860B8
:101D60000B46FB707B68D3F8E0355B68FA78114668
:101D700078689847002318460837BD4680BD00BFE5
:101D800080B582B000AF78607B68D3F8E0351B6A1D
:101D900078689847002318460837BD4680BD00BFC5
:101DA00080B582B000AF78607B68D3F8E0355B6ABD
:101DB00078689847002318460837BD4680BD00BFA5
:101DC00080B584B000AF00237B6000233B6000F04F
:101DD0007DFE00F0A9FE02F009FD00F087FA00F098
:101DE000ADFA00F00BFB00F025FB00F043FB00F028
:101DF0005FFB00F01FFA00F053FA00F0D7F9002360
:101E0000FB6001214FF0804003F09AF90346002B5C
:101E1000F7D029E0FB68002B04D1334800F076FBB3
:101E20000123FB604FF40041304800F0DFFC002349
:101E3000BB6002E0BB680133BB60BB682C4A9342C5
:101E4000F8DD4FF40041294800F0DEFC0023BB60C0
:101E500002E0BB680133BB60BB68254A9342F8DDF2
:101E60000121244803F04CF98021234800F0A4FC10
:101E70000346012BCED029E0FB68002B04D11A4881
:101E800000F044FB0123FB604FF40051174800F0C1
:101E9000ADFC0023BB6002E0BB680133BB60BB68E4
:101EA000134A9342F8DD4FF40051104800F0ACFCA7
:101EB0000023BB6002E0BB680133BB60BB680C4A17
:101EC0009342F8DD01210B4803F01AF940210A483A
:101ED00000F072FC0346012BCED00021054803F030
:101EE0000FF90023FB608CE7B0510008000C0240A2
:101EF0003F420F00001000400008024080B489B04B
:101F000000AF78600023BB6100237B610023FB618D
:101F100002233B610023FB600223BB60484B9B68AC
:101F200003F00C03BB61BB69042B07D0082B09D05D
:101F3000002B3FD17B68434A1A603FE07B68424AEE
:101F40001A603BE03E4B5B6803F480039B0DFB6033
:101F50003B4B5B6803F03F03BB60FB68002B0DD07D
:101F6000394ABB68B2FBF3F2354B596847F6C07388
:101F70000B409B0903FB02F3FB610CE0314ABB6899
:101F8000B2FBF3F22E4B596847F6C0730B409B0926
:101F900003FB02F3FB612A4B5B6803F440331B0C29
:101FA00001335B003B61FA693B69B2FBF3F27B688A
:101FB0001A6003E07B68234A1A6000BF204B9B68CD
:101FC00003F0F003BB61BB691B09BB611F4ABB691E
:101FD00013441B78DBB27B617B681A687B69DA404B
:101FE0007B685A60164B9B6803F4E053BB61BB6986
:101FF0009B0ABB61154ABB6913441B78DBB27B614A
:102000007B685A687B69DA407B689A600C4B9B68F6
:1020100003F46043BB61BB695B0BBB610B4ABB69EB
:1020200013441B78DBB27B617B685A687B69DA40BA
:102030007B68DA6000BF2437BD4680BC704700BFB4
:10204000003802400024F40040787D014C0000205C
:1020500080B483B000AF78600B46FB70FB78002B38
:1020600006D00949084B1A6B7B6813430B6306E0E3
:102070000549054B1A6B7B68DB4313400B6300BFBC
:102080000C37BD4680BC70470038024080B483B036
:1020900000AF78600B46FB70FB78002B06D0094937
:1020A000084B5A6B7B6813434B6306E00549054BAD
:1020B0005A6B7B68DB4313404B6300BF0C37BD4654
:1020C00080BC70470038024080B483B000AF7860B5
:1020D0000B46FB70FB78002B06D00949084B1A6CA5
:1020E0007B6813430B6406E00549054B1A6C7B685B
:1020F000DB4313400B6400BF0C37BD4680BC704708
:102100000038024080B483B000AF78600B46FB70AB
:10211000FB78002B06D00949084B5A6C7B681343A7
:102120004B6406E00549054B5A6C7B68DB43134062
:102130004B6400BF0C37BD4680BC7047003802407E
:1021400080B483B000AF78600B46FB70FB78002B47
:1021500006D00949084B1A6A7B6813430B6206E0F4
:102160000549054B1A6A7B68DB4313400B6200BFCD
:102170000C37BD4680BC70470038024080B483B045
:1021800000AF0346FB71084997F907305B09FA79FC
:1021900002F01F02012000FA02F241F8232000BFE2
:1021A0000C37BD4680BC704700E100E080B590B0C0
:1021B00000AF01214FF40010FFF74AFF4FF06063BA
:1021C0007B6040233B614FF48073BB624FF48033EC
:1021D000FB624FF400737B61134BFB60134BBB60DE
:1021E0004FF48063FB610023BB614FF400633B62EB
:1021F0004FF400537B620023FB630023BB63002387
:102200003B6303237B633B1D1946094800F082FDB5
:102210000121074800F0D4FD01210020FFF77CFBDD
:1022200000BF4037BD4680BDBC5100080874004067
:102230008860024080B586B000AF01210120FFF721
:1022400007FF10233B6103233B7503237B750023AA
:10225000FB7507F110031946104800F01FFA012121
:102260004FF00050FFF730FF04233B6000237B60FA
:102270000023FB600023BB603B4619460020FFF7AC
:10228000DBFA00210020FFF72DFB01210020FFF7E2
:1022900005FB00BF1837BD4680BD00BF00000240EF
:1022A00080B584B000AF01211020FFF70DFF41F28F
:1022B0006703BB800023FB800F23BB600023BB812F
:1022C0000023BB733B1D1946074802F0A1FE2021E5
:1022D000054802F051FF0021034802F003FF00BF50
:1022E0001037BD4680BD00BF0010004080B500AF74
:1022F00001210820FFF7ACFE01211020FFF7A8FE06
:1023000001210120FFF7A4FE01210420FFF7A0FE18
:1023100001214FF00050FFF7D7FE01214FF48070EC
:10232000FFF7F0FE01210120FFF7CEFE01214FF45F
:102330000030FFF7C9FE00BF80BD00BF80B582B08E
:1023400000AF4FF470433B6001233B710023BB712E
:1023500003237B710023FB713B461946234800F0A1
:102360009DF94FF402433B6001233B710023BB7195
:1023700003237B710023FB713B4619461C4800F088
:102380008DF901233B6001233B710023BB710323C3
:102390007B710023FB713B461946164800F07EF91D
:1023A00007220221144800F03DFA0023BB710123EB
:1023B000FB7102233B7104233B6002237B713B468C
:1023C00019460D4800F06AF9072203210A4800F077
:1023D00029FA02233B7108233B603B461946064815
:1023E00000F05CF900BF0837BD4680BD000C02401C
:1023F00000100240000802400000024080B584B096
:1024000000AF6323BB6042F2CF03BB800023BB81DC
:102410000023FB803B1D19464FF0804002F0F8FD81
:1024200001214FF0804002F06BFE00BF1037BD4627
:1024300080BD00BF80B584B000AF4FF461433B6006
:102440000023BB810C237B8100233B810023FB8085
:102450000023BB803B4619460548FFF743F801219E
:102460000348FFF7F9F800BF1037BD4680BD00BF35
:102470000044004080B582B000AF012240F22551F7
:102480000A48FFF71BF926233B7100237B710023C9
:10249000BB710123FB713B1D184602F09BFA2620FD
:1024A000FFF76CFE00BF0837BD4680BD004400400A
:1024B00080B500AF40F225510648FFF763F90346A7
:1024C000002B05D0034B9B889BB2184600F08AFA7C
:1024D00000BF80BD0044004080B582B000AF03461D
:1024E000FB7100BF80210848FFF730F90346002B3D
:1024F000F8D0FB799BB219460348FFF7CDF800BF2F
:102500000837BD4680BD00BF0044004080B582B0A2
:1025100000AF786006E07B685A1C7A601B7818462A
:10252000FFF7DAFF7B681B78002BF4D100BF083778
:10253000BD4680BD80B483B000AF03463960FB71F7
:102540003B6812221A80034B18460C37BD4680BCEC
:10255000704700BF7800002080B483B000AF03460E
:102560003960FB713B6804221A80034B18460C3714
:10257000BD4680BC704700BF9800002080B582B087
:1025800000AF03463960FB71FB79002B05D13A6837
:102590000749084801F012F904E03A68044906487E
:1025A00001F00CF9024B18460837BD4680BD00BF4C
:1025B000FC070020BC590008E059000880B582B033
:1025C00000AF03463960FB713A680449044801F0E2
:1025D000F5F8024B18460837BD4680BDFC070020C1
:1025E000045A000880B582B000AF03463960FB7121
:1025F000FB79002B05D13A680749084801F0DEF85D
:1026000004E03A680449064801F0D8F8024B18463D
:102610000837BD4680BD00BFFC070020185A0008DF
:10262000285A000880B582B000AF03463960FB71BC
:10263000FB79002B05D13A680749084801F0BEF83C
:1026400004E03A680449054801F0B8F8024B18461E
:102650000837BD4680BD00BFFC070020385A00087F
:1026600080B582B000AF03463960FB71FB79002B67
:1026700005D13A680749084801F0A0F804E03A6833
:102680000449054801F09AF8024B18460837BD4640
:1026900080BD00BFFC070020445A000880B487B00A
:1026A00000AF7860396000237B6100233B61002329
:1026B000FB6000237B6176E001227B6902FA03F371
:1026C0003B613B681A683B691340FB60FA683B69F1
:1026D0009A4265D17B681A687B695B00032101FA25
:1026E00003F3DB431A407B681A607B681A683B6817
:1026F0001B7919467B695B0001FA03F31A437B6877
:102700001A603B681B79012B03D03B681B79022BB5
:102710002ED17B689A687B695B00032101FA03F381
:10272000DB431A407B689A607B689A683B685B79F8
:1027300019467B695B0001FA03F31A437B689A60D0
:102740007B685A687B699BB2012101FA03F3DB4382
:102750001A407B685A607B685A683B689B791946C7
:102760007B699BB201FA03F39BB21A437B685A6000
:102770007B68DA687B699BB25B00032101FA03F393
:10278000DB431A407B68DA607B68DA683B68DB7998
:1027900019467B695B0001FA03F31A437B68DA6030
:1027A0007B6901337B617B690F2B85D900BF1C37A7
:1027B000BD4680BC704700BF80B485B000AF786074
:1027C0000B467B800023FB737B681A697B88134070
:1027D000002B02D00123FB7301E00023FB73FB7B82
:1027E00018461437BD4680BC704700BF80B483B024
:1027F00000AF78600B467B807B687A881A8300BFC5
:102800000C37BD4680BC704780B483B000AF7860A1
:102810000B467B807B687A885A8300BF0C37BD46A5
:1028200080BC704780B485B000AF78600B467B8079
:1028300013467B700023FB600023BB607A787B88A3
:1028400003F007039B0002FA03F3FB607B88DB08BD
:102850009BB218467B88DB089BB21A467B6808321D
:1028600053F822207B8803F007039B000F2101FA15
:1028700003F3DB4302EA03017B6800F1080243F83B
:1028800022107B88DB089BB21A467B68083253F81B
:102890002220FB681343BB607B88DB089BB21A468F
:1028A0007B680832B96843F8221000BF1437BD4670
:1028B00080BC704780B400AF00231846BD4680BC82
:1028C000704700BF80B400AF00231846BD4680BCEF
:1028D000704700BF80B485B000AFF860B9607A601F
:1028E000FB68232B74D801A252F823F0D1290008E9
:1028F000D1290008D1290008D1290008D1290008D0
:10290000D1290008D1290008D1290008D1290008BF
:10291000D1290008D1290008D1290008D1290008AF
:10292000D1290008D1290008D1290008D12900089F
:10293000D1290008D1290008D1290008D12900088F
:10294000D1290008D1290008D1290008D12900087F
:10295000D1290008D1290008D1290008D12900086F
:10296000D1290008D1290008D1290008D12900085F
:102970007D290008D1290008D1290008184B1B68BF
:10298000DAB2BB681A70BB680133154A1268120AC2
:10299000D2B21A70BB680233114A1268120CD2B25A
:1029A0001A70BB6803330E4A1268120ED2B21A7044
:1029B000BB6804330A4A12791A70BB680533084AA7
:1029C00052791A70BB680633054A92791A7000E092
:1029D00000BF002318461437BD4680BC704700BFB7
:1029E0009C00002080B582B000AF0346FB71FB1D48
:1029F0000121184600F004F800BF0837BD4680BD2D
:102A000080B485B000AF786039600023FB6017E0C8
:102A1000104B1B687968FA680A4411780E4AD15441
:102A20000C4B1B6801330B4A1360FB680133FB60DE
:102A3000084B1B68B3F5006F02D1064B00221A60E9
:102A4000FA683B689A42E3D3002318461437BD4620
:102A500080BC704754010020BC08002080B485B0C1
:102A600000AF786039600023FB601EE0144B1B68E8
:102A70007968FA680A441178124AD154104B1B68DD
:102A800001330F4A13600E4B1B68802B02D10C4B95
:102A900000221A600A4B1A680B4B1B689A4201D13C
:102AA000022307E0FB680133FB60FA683B689A4247
:102AB000DCD3002318461437BD4680BC704700BFE6
:102AC000F807002064070020E407002080B500AF6D
:102AD000124A124B1B6843F0010313600F4B002294
:102AE0009A600E4A0D4B1B6823F0847323F48033E5
:102AF00013600A4B0A4A5A60084A084B1B6823F4C1
:102B000080231360054B0022DA6000F089F8054B42
:102B10004FF000629A6000BF80BD00BF00380240E5
:102B20001030002400ED00E080B487B000AF002337
:102B30003B6100237B610223FB600023BB60022317
:102B40007B60324B9B6803F00C033B613B69042BB9
:102B500007D0082B09D0002B3FD12D4B2D4A1A60EE
:102B60003FE02B4B2C4A1A603BE0284B5B6803F498
:102B700080039B0DBB60254B5B6803F03F037B60CC
:102B8000BB68002B0DD0244A7B68B2FBF3F21F4BCD
:102B9000596847F6C0730B409B0903FB02F37B6146
:102BA0000CE01C4A7B68B2FBF3F2184B596847F6FD
:102BB000C0730B409B0903FB02F37B61134B5B6803
:102BC00003F440331B0C01335B00FB607A69FB6844
:102BD000B2FBF3F30E4A136003E00D4B0D4A1A608B
:102BE00000BF0A4B9B6803F0F0031B090B4AD35C40
:102BF000DBB23B61064B1A683B6922FA03F3044AD5
:102C0000136000BF1C37BD4680BC704700380240CF
:102C1000B80000200024F40040787D01BC000020B2
:102C200080B483B000AF00237B6000233B60354A53
:102C3000344B1B6843F480331360324B1B6803F43E
:102C400000333B607B6801337B603B68002B03D122
:102C50007B68B3F5A06FF0D12A4B1B6803F40033F7
:102C6000002B02D001233B6001E000233B603B6866
:102C7000012B42D1234A234B1B6C43F08053136436
:102C8000214A214B1B6843F4804313601D4A1D4BAE
:102C90009B6893601B4A1B4B9B6843F40043936003
:102CA000184A184B9B6843F4A0539360154B174A7E
:102CB0005A60144A134B1B6843F08073136000BFC3
:102CC000104B1B6803F00073002BF9D0104B40F23F
:102CD00005621A600B4A0B4B9B6823F00303936059
:102CE000084A084B9B6843F00203936000BF054B02
:102CF0009B6803F00C03082BF9D100BF0C37BD46CD
:102D000080BC704700380240007000400854400703
:102D1000003C024080B485B000AF78603960002389
:102D2000FB607B681B68FB60FA68244B1340FB6008
:102D30003B681A683B68DB681A433B685B691A4367
:102D40003B689B691A433B68DB691A433B681B6A13
:102D50001A433B685B6A1A433B689B6A1A433B68A9
:102D60005B6B1A433B689B6B1343FA681343FB602E
:102D70007B68FA681A607B685B69FB60FB6823F01C
:102D80000703FB603B68DA6A3B681B6B1343FA6816
:102D90001343FB607B68FA685A613B681A697B6879
:102DA0005A603B685A687B689A603B689A687B689F
:102DB000DA6000BF1437BD4680BC70473F801CF00E
:102DC00080B483B000AF78600B46FB70FB78002BBB
:102DD00006D07B681B6843F001027B681A6005E03F
:102DE0007B681B6823F001027B681A6000BF0C3708
:102DF000BD4680BC704700BF80B584B000AF78602E
:102E000001210120FFF724F94FF4D853BB600323BD
:102E10007B7302233B730023BB730023FB7307F117
:102E2000080319461F48FFF739FC0A2208211D48EC
:102E3000FFF7F8FC0A2209211A48FFF7F3FC0A22DF
:102E40000B211848FFF7EEFC0A220C211548FFF76A
:102E5000E9FC4FF48063BB600123BB730123FB7368
:102E600003237B7307F1080319460E48FFF716FC8E
:102E70000A220A210B48FFF7D5FC01214FF48040BC
:102E8000FFF740F901218020FFF700F901214FF001
:102E90008050FFF755F9012001F07CFD00BF10378D
:102EA000BD4680BD0000024080B584B000AF7860B0
:102EB0004FF4C06001F07CFD43233B7301237B731F
:102EC0000323BB730123FB7307F10C03184601F0C6
:102ED00081FD00BF1037BD4680BD00BF80B485B006
:102EE00000AF78600023FB607A6813461B019B1AD1
:102EF000DB001A460A4BA3FB0213D21A52081344F2
:102F00009B08BB60FB680133FB60FA68BB689A42B0
:102F100000D8F7E700BF1437BD4680BC704700BF3C
:102F20002549922480B582B000AF78607B684FF469
:102F30007A7202FB03F31846FFF7D0FF00BF083791
:102F4000BD4680BD80B584B000AF78603960002395
:102F5000FB733B685B78092B39D801A252F823F048
:102F6000B12F0008C52F0008CF2F0008BB2F000885
:102F7000CF2F0008932F0008892F0008CF2F0008BB
:102F8000A72F00089D2F00083968786800F036F9EF
:102F900022E03968786800F005FA1DE03968786841
:102FA00000F03EFA18E03968786800F0B3FA13E0F0
:102FB0003968786800F0DEFA0EE03968786800F069
:102FC00001FB09E03968786800F064FB04E03968C7
:102FD000786800F0CFFB00BFFB7B18461037BD467A
:102FE00080BD00BF80B584B000AF78603960002339
:102FF000FB737B6893F81231032B1BD13B689B88D2
:10300000DBB2012B11D87B68D3F8E0359B683968B7
:10301000786898473B68DB88002B10D1FB7B002B3E
:103020000DD1786801F0C4FF09E03968786800F0D4
:10303000A1FB04E03968786800F09CFB00E000BF69
:10304000FB7B18461037BD4680BD00BF80B584B0FD
:1030500000AF786039600023FB733B689B88BB73CB
:103060003B685B78012B39D0032B02D0002B6CD04E
:10307000BDE07B6893F81231022B02D0032B0CD0F9
:1030800025E0BB7B002B27D0BB7B802B24D0BB7BD8
:103090001946786801F08EFE1EE03B685B88002BC5
:1030A0000AD1BB7B002B07D0BB7B802B04D0BB7B22
:1030B0001946786801F07EFE7B68D3F8E0359B689E
:1030C000396878689847786801F072FF05E03968D8
:1030D000786800F04FFB00E000BF88E07B6893F861
:1030E0001231022B02D0032B0CD025E0BB7B002B2E
:1030F00027D0BB7B802B24D0BB7B1946786801F09E
:1031000059FE1EE03B685B88002B1CD1BB7B002B6B
:103110000ED0BB7B802B0BD0BB7B1946786801F0AF
:1031200085FE7B68D3F8E0359B68396878689847F6
:10313000786801F03DFF06E03968786800F01AFB16
:1031400002E000BF53E000BF51E07B6893F812310A
:10315000022B02D0032B0CD042E0BB7B002B44D0CF
:10316000BB7B802B41D0BB7B1946786801F022FEE7
:103170003BE097F90E30002B15DABB7B03F07F02A2
:10318000796813469B001344DB000B4403F58D73F1
:103190001B78002B03D0184B01221A601AE0164B43
:1031A00000221A6016E097F90E30002B12DBBA7B72
:1031B000796813469B001344DB000B4403F272331F
:1031C0001B78002B03D00C4B01221A6002E00A4B43
:1031D00000221A6002220849786801F081FE05E0A9
:1031E0003968786800F0C6FA00E000BF00BFFB7BDA
:1031F00018461037BD4680BD4001002080B584B020
:1032000000AF786039603B685B881B0A9BB2013B6A
:10321000062B00F2A98001A252F823F039320008EF
:1032200069320008913200086933000869330008E8
:10323000553300085F3300087B68D3F8E8351B6816
:103240007A68927807F10A0110469847F8603B685F
:10325000DB88402B05D07B6893F81231012B40F0BE
:10326000888008237B8184E07B68D3F8E0359B6A03
:103270007A68927807F10A0110469847F860FB686F
:10328000013302221A707B68FA68C3F8EC2571E0FA
:103290003B685B88DBB2052B56D801A252F823F0BD
:1032A000B9320008D1320008E932000801330008C1
:1032B00019330008313300087B68D3F8E8355B68C0
:1032C0007A68927807F10A0110469847F86040E062
:1032D0007B68D3F8E8359B687A68927807F10A0131
:1032E00010469847F86034E07B68D3F8E835DB682F
:1032F0007A68927807F10A0110469847F86028E04A
:103300007B68D3F8E8351B697A68927807F10A017F
:1033100010469847F8601CE07B68D3F8E8355B6995
:103320007A68927807F10A0110469847F86010E031
:103330007B68D3F8E8359B697A68927807F10A01CF
:1033400010469847F86004E03968786800F012FA8F
:1033500025E00FE03968786800F00CFA1FE0396862
:10336000786800F007FA1AE03968786800F002FA25
:1033700015E000BF7B89002B11D03B68DB88002B58
:103380000DD03B68DA887B89934228BF13469BB2F5
:103390007B817B891A46F968786801F0A1FD1037B6
:1033A000BD4680BD80B584B000AF786039603B68B1
:1033B0009B88002B2CD13B68DB88002B28D13B68F5
:1033C0005B88DBB203F07F03FB737B6893F81231F9
:1033D000032B04D13968786800F0CCF91CE07B68D5
:1033E000FA7B83F81321FB7B1946786801F05AFDBC
:1033F000786801F0DDFDFB7B002B04D07B680222A6
:1034000083F8122108E07B68012283F8122103E08F
:103410003968786800F0AEF900BF1037BD4680BD4E
:1034200080B582B000AF786039603B685B88DAB203
:10343000374B1A70364B1B78012B04D939687868E2
:1034400000F098F95FE07B6893F81231022B02D00C
:10345000032B1BD052E02E4B1B78002B12D02C4B91
:103460001A787B6883F810217B68032283F8122185
:10347000274B1B7819467868FEF756FC786801F0F0
:1034800097FD40E0786801F093FD3CE0204B1B780D
:10349000002B12D17B68022283F812211C4B1A7870
:1034A0007B6883F810211A4B1B7819467868FEF761
:1034B00053FC786801F07CFD25E07B6893F81021CF
:1034C000134B1B789A4215D07B6893F8103119463C
:1034D0007868FEF741FC0E4B1A787B6883F8102160
:1034E0000B4B1B7819467868FEF71EFC786801F0D4
:1034F0005FFD08E0786801F05BFD04E039687868FA
:1035000000F038F900BF00BF0837BD4680BD00BFDE
:103510004C01002080B582B000AF786039603B6814
:10352000DB88012B04D03968786800F023F91BE0B0
:103530007B6893F81231022B02D0032B06D00EE0E9
:1035400001220B49786801F0CBFC0DE07B6803F5A4
:10355000887301221946786801F0C2FC04E03968DA
:10356000786800F007F900BF00BF0837BD4680BD8E
:103570004401002080B582B000AF786039607B687C
:1035800093F81231023B012B11D87B68D3F8143128
:10359000002B03D00A4B03221A6002E0084B0122E1
:1035A0001A6001220649786801F09AFC04E0396843
:1035B000786800F0DFF800BF00BF0837BD4680BD67
:1035C0004801002080B584B000AF786039600023E6
:1035D000FB733B685B88012B0ED17B680122C3F82B
:1035E00014217B68D3F8E0359B6839687868984780
:1035F000786801F0DDFC48E03B685B88022B44D131
:103600003B689B88DBB2002B3FD17B681B695B6802
:10361000BB603B689B881B0A9BB2FB73FB7B013B37
:10362000042B2BD801A252F823F000BF413600082A
:103630004D36000859360008653600087136000816
:103640003B7A012262F306133B7217E03B7A0222B7
:1036500062F306133B7211E03B7A032262F3061316
:103660003B720BE03B7A042262F306133B7205E0E7
:103670003B7A052262F306133B7200BF7B681B692D
:10368000BA685A60786801F093FC00BF1037BD46F5
:1036900080BD00BF80B582B000AF786039607B68C4
:1036A00093F81231023B012B12D83B685B88012B47
:1036B00013D17B680022C3F814217B68D3F8E0356E
:1036C0009B68396878689847786801F071FC04E075
:1036D0003968786800F04EF800E000BF00BF083796
:1036E000BD4680BD80B483B000AF786039607B6830
:1036F00093F8C8253B681A707B6893F8C9253B6826
:103700005A707B6893F8CA359AB27B6893F8CB35C8
:103710009BB21B029BB213449AB23B685A807B68EF
:1037200093F8CC359AB27B6893F8CD359BB21B02E7
:103730009BB213449AB23B689A807B6893F8CE356B
:103740009AB27B6893F8CF359BB21B029BB21344AD
:103750009AB23B68DA803B68DB881A467B68C3F81C
:103760003C217B68012283F8112100BF0C37BD4644
:1037700080BC704780B582B000AF786039603B682C
:103780001B785BB2002B04DA8021786801F012FB11
:103790000CE03B68DB88002B04D18021786801F0C5
:1037A00009FB03E00021786801F004FB7868FDF76D
:1037B000FFFD00BF0837BD4680BD00BF80B586B0A5
:1037C00000AFF860B9607A600023FB75FB68002BDE
:1037D00033D0F86800F036F8034601339BB25B0043
:1037E0009AB27B681A80FB7D5A1CFA751A46BB6830
:1037F00013447A681288D2B21A70FB7D5A1CFA758B
:103800001A46BB68134403221A7012E0FB7D5A1C4F
:10381000FA751A46BB681A44FB68591CF9601B7894
:103820001370FB7D5A1CFA751A46BB6813440022BC
:103830001A70FB681B78002BE8D100BF1837BD4613
:1038400080BD00BF80B485B000AF78600023FB73FB
:1038500005E0FB7B0133FB737B6801337B607B6896
:103860001B78002BF5D1FB7B18461437BD4680BC76
:10387000704700BF80B586B000AF786000237B61E1
:103880007868FCF7D7FF0346002B00F09C8078682F
:10389000FCF7E2FF03463B613B69002B01D10023AB
:1038A00092E0BB7C03F00803DBB2002B06D0786803
:1038B00000F012FA02467B6913437B61BB7C03F084
:1038C0000403DBB2002B06D0786800F00FF9024643
:1038D0007B6913437B613B7C03F00203DBB2002B6B
:1038E00009D00023FB603B7B43F002033B737B6802
:1038F000DB68FA685A61FB7C23F07F03DBB2002BA4
:1039000006D0786800F064F802467B6913437B6157
:103910007B7C03F00803DBB2002B06D0786800F054
:1039200097F802467B6913437B613B7C03F00803F5
:10393000DBB2002B06D0786800F08AFA02467B6979
:1039400013437B613B7C03F01003DBB2002B06D0FA
:10395000786800F097FA02467B6913437B617B7CB1
:1039600003F01003DBB2002B06D0786800F07EFB7A
:1039700002467B6913437B617B7C03F02003DBB24F
:10398000002B06D0786800F00DFC02467B691343DB
:103990007B61BB7C03F01003DBB2002B06D07868A0
:1039A00000F03CFC02467B6913437B61BB7C03F067
:1039B0002003DBB2002B06D0786800F049FC0246F9
:1039C0007B6913437B617B6918461837BD4680BD10
:1039D00080B586B000AF78607B689B7A002B11D0F1
:1039E0007B6803F586731B68FB603B7B6FF34103C9
:1039F0003B733B7B6FF300033B737B68D3F80C3165
:103A0000FA681A6000233B613B7C43F001033B747E
:103A10007B681B697A68126951683A69D2430A4027
:103A20005A600A4B1B689B697868984700237B6142
:103A3000FB7D43F08003FB757B68DB687A695A6124
:103A4000012318461837BD4680BD00BF480000203E
:103A500080B586B000AF7860224B1B685B697868E0
:103A600098477B681B699B68FB6000237B617B7DBB
:103A700043F008037B757B68DB687A695A617B6871
:103A80009B7A002B29D03B7B03F00103DBB2002B98
:103A900023D000233B613B7C43F001033B747B68F4
:103AA000D3F80C317A68D2F80C2111683A690A43CC
:103AB0001A603B7C43F002033B747B68D3F80C3103
:103AC0007A68D2F80C2111683A690A431A60064AEA
:103AD000054B1B6943F00603136101231846183791
:103AE000BD4680BD4800002000ED00E080B586B0F6
:103AF00000AF786000233B610023BB607868FDF76E
:103B000041FC7861DCE07B6903F00103002B00F0ED
:103B1000D1803B69DBB21946786800F0B3FB0346FD
:103B2000BB603B7A03F00103DBB2002B32D00122F1
:103B30003B6902FA03F3FB607B681B697A681269D0
:103B4000516BFA68D2430A405A630023BB603B7A48
:103B500043F001033B727A683B6904339B001344D2
:103B60009B68BA689A605B4B1B685B683A69D2B223
:103B70001146786898477B68DB78012B0AD13B694E
:103B8000002B07D17B6893F81131042B02D17868A0
:103B9000FDF70EFC3B7A03F00403DBB2002B0DD0E3
:103BA0000023BB603B7A43F004033B727A683B69B5
:103BB00004339B0013449B68BA689A603B7A03F015
:103BC0000803DBB2002B0DD00023BB603B7A43F02F
:103BD00008033B727A683B6904339B0013449B687B
:103BE000BA689A603B7A03F01003DBB2002B0DD069
:103BF0000023BB603B7A43F010033B727A683B6959
:103C000004339B0013449B68BA689A603B7A03F0C4
:103C10002003DBB2002B0DD00023BB603B7A43F0C6
:103C200020033B727A683B6904339B0013449B6812
:103C3000BA689A603B7A03F04003DBB2002B0DD0E8
:103C40000023BB603B7A43F040033B727A683B69D8
:103C500004339B0013449B68BA689A603B7A03F074
:103C60000203DBB2002B0DD00023BB603B7A43F094
:103C700002033B727A683B6904339B0013449B68E0
:103C8000BA689A603B7A23F07F03DBB2002B11D035
:103C90003969786800F078F90023BB603B7A43F01B
:103CA00080033B727A683B6904339B0013449B6832
:103CB000BA689A603B6901333B617B695B087B6151
:103CC0007B69002B7FF41FAF012318461837BD46D0
:103CD00080BD00BF4800002080B586B000AF78608E
:103CE00000233B610023FB607868FDF71BFB7861D4
:103CF000A3E07B6903F00103002B00F098803B698F
:103D0000DBB219467868FDF723FB0346FB603B7B7B
:103D100003F00103DBB2002B48D00023FB603B7BA8
:103D200043F001033B737A683B6914339B001344EF
:103D30005B68FA689A607B68DB78012B1FD17A6830
:103D40003B6914339B0013445B681B69BB60796853
:103D50003A6913469B001344DB000B4403F55E7382
:103D60001B68BA68C2F31202991A78683A69134656
:103D70009B001344DB00034403F562731960334B6B
:103D80001B681B683A69D2B21146786898477B680D
:103D9000DB78012B0AD13B69002B07D17B6893F8B4
:103DA0001131052B02D17868FDF702FB3B7B03F054
:103DB0000203DBB2002B0DD00023FB603B7B43F002
:103DC00002033B737A683B6914339B0013445B68BE
:103DD000FA689A603B7B03F00403DBB2002B0DD042
:103DE0000023FB603B7B43F004033B737A683B6931
:103DF00014339B0013445B68FA689A603B7B03F0C2
:103E00000803DBB2002B12D0104B1B689B6878684C
:103E100098470023FB603B7B43F008033B737A68C1
:103E20003B6914339B0013445B68FA689A603B69F2
:103E300001333B617B695B087B617B69002B7FF40D
:103E400058AF012318461837BD4680BD48000020F2
:103E500080B584B000AF7860094B1B68DB68786878
:103E600098470023FB603B7B43F008033B737B6870
:103E7000DB68FA685A61012318461037BD4680BDD9
:103E80004800002080B586B000AF786000233B6119
:103E90003B7C43F010033B747B68DB687A68D26834
:103EA00091693A69D2430A409A617B68DB681B6A70
:103EB000FB603B7BC3F30303DBB21A4613469B0054
:103EC0001344DB0003F55C737A6813447B61BB7BAE
:103ED000C3F34303DBB2013B052B45D801A252F8E3
:103EE00023F000BF693F0008FD3E0008693F00085D
:103EF000693F0008693F0008453F0008BA8947F656
:103F0000F07313409BB2002B30D07B69D968BB891A
:103F1000C3F30A139BB21A467868FCF7D9F97B6998
:103F2000DB68BA89C2F30A1292B21A447B69DA607A
:103F30007B699B69BA89C2F30A1292B21A447B69FF
:103F40009A6113E07B6803F5B96308221946786823
:103F5000FCF7BEF97B699B69BA89C2F30A1292B277
:103F60001A447B699A6102E000BF00E000BF7B68F1
:103F7000DB687A68D26891693A690A439A610123D9
:103F800018461837BD4680BD80B586B000AF786052
:103F9000396000237B610023BB603A6813469B00B5
:103FA0001344DB0003F58C737A681344FB60FB68F1
:103FB0005A69FB689B69D31A7B61FB689A687B69C5
:103FC0009A4202D2FB689B687B617B6903339B0842
:103FD0003B617A683B6804339B0013449B689B6990
:103FE000BB602EE0FB685A69FB689B69D31A7B6152
:103FF000FB689A687B699A4202D2FB689B687B6186
:104000007B6903339B083B61FB68D9683B68DAB284
:104010007B699BB27868FCF721F9FB68DA687B69F9
:104020001A44FB68DA60FB689A697B691A44FB688A
:104030009A617A683B6804339B0013449B689B69D0
:10404000BB603B891A463B699A4209D9FB689A6969
:10405000FB685B699A4203D2FB685B69002BC1D1A4
:10406000012318461837BD4680BD00BF80B58AB011
:1040700000AF786000233B6100233B620023FB61BB
:104080000023BB6100237B610023FB603B7C43F08A
:1040900001033B747B681B697A68126951683A694D
:1040A000D2430A405A6000217868FCF71BFB0023CA
:1040B0007B6212E07A687B6A04339B0013449B683E
:1040C000FF229A607A687B6A14339B0013445B6812
:1040D000FF229A607B6A01337B627B685B781A46B9
:1040E0007B6A9A42E6D87B681B694FF0FF329A617F
:1040F00001233B8401237B847B681B693A6ADA6174
:104100003B7F43F008033B773B7F43F001033B7762
:104110003B7F43F004033B773B7F43F002033B7755
:104120007B681B69FA695A613B7E43F001033B7669
:104130003B7E43F008033B763B7E43F002033B7635
:104140003B7E43F004033B763B7E43F020033B760B
:104150007B681B69BA691A617B681B691B687B6194
:10416000BB8A6FF30A13BB827B681B697A691A608A
:104170007868FDF71DF90023FB607B7B43F010039B
:104180007B737B68DB68FA685A61054B1B681B69A7
:1041900078689847012318462837BD4680BD00BF80
:1041A0004800002080B584B000AF78607868FCF7E4
:1041B00027FD7B68DB68DB68BB607868FCF7FCFC8C
:1041C0000346032B0CD17B6800229A707B684FF466
:1041D00000729A807B7A092262F385037B720AE07F
:1041E0007B6801229A707B6840229A807B7A052244
:1041F00062F385037B727B68DB68BA68DA60002350
:10420000FB607B7B43F020037B737B68DB68FA6891
:104210005A61012318461037BD4680BD80B584B071
:1042200000AF78600023FB60084B1B68DB6978688F
:104230009847BB7B43F01003BB737B68DB68FA686D
:104240005A61012318461037BD4680BD4800002042
:1042500080B584B000AF78600023FB60084B1B681A
:104260001B6A78689847BB7B43F02003BB737B686D
:10427000DB68FA685A61012318461037BD4680BDD5
:104280004800002080B487B000AF78600B46FB7018
:104290007B681B691B697B617B681B695B6B3B618E
:1042A000FB783A6922FA03F3DB01DBB27A69134344
:1042B0007B61FB787A6804339B0013449B689A689F
:1042C0007B691340FB60FB6818461C37BD4680BC09
:1042D000704700BF80B584B000AF78600B46FB70BC
:1042E0007B68D3F8EC3539331A880223812178684A
:1042F00000F052FC7B68D3F8EC3540331A88022377
:104300000121786800F048FC0323082282217868A4
:1043100000F042FC0D4BFB60FB68043302221A7074
:10432000FB68053300221A70094B1B6898477B68AD
:10433000D3F8EC3540331B88064A0121786800F039
:10434000BBFC002318461037BD4680BD7800002016
:10435000A40000207408002080B582B000AF78600F
:104360000B46FB708121786800F06CFC01217868B5
:1043700000F068FC8221786800F064FC034B5B6805
:104380009847002318460837BD4680BDA40000208A
:1043900080B584B000AF786039603B681B7803F06B
:1043A0006003002B3DD0202B35D13B68DB88002BF0
:1043B00027D03B681B785BB2002B10DA354B9B682B
:1043C0003A68527810463A68D288334998473B6831
:1043D000DB881A463049786800F082FD19E03B68B6
:1043E0005B781A462D4B1A603B68DB881A462C4BCB
:1043F0001A603B68DB881A462749786800F0A4FDFC
:1044000007E0244B9B683A6852781046002200214E
:10441000984700233AE039687868FFF7ABF9022340
:1044200034E03B685B780A2B18D00B2B1CD0062B92
:104430002BD13B685B881B0A9BB2212B07D1194B00
:10444000BB603B68DB883A2B28BF3A23FB81FB89A2
:104450001A46B968786800F043FD16E00122124957
:10446000786800F03DFD10E03B685B88DBB2002B14
:1044700006D13B685B88DBB21A460B4B1A6003E03F
:1044800039687868FFF776F900BF002318461037BF
:10449000BD4680BDA4000020B4080020100100200B
:1044A00064010020DE0000205001002080B582B0B1
:1044B00000AF7860094B1B68FF2B0AD0084B9B6844
:1044C000064A1068074A126807499847034BFF22BB
:1044D0001A60002318460837BD4680BD1001002031
:1044E000A400002064010020B408002080B584B03E
:1044F00000AF78600B46FB70284B1B78012B48D12E
:10450000274B1B68002B03D1244B00221A7040E07C
:104510007B68D3F8EC3539331B881A46204B1B686F
:104520009A421ED21F4B1B68FB817B68D3F8EC3587
:10453000B3F83930BB817B68D3F8EC3539331B884D
:104540001A46184B1B681344164A1360144B1B6819
:104550007A68D2F8EC25393212889B1A104A136017
:104560000FE0104B1B68FB810D4B1B68BB810D4B93
:104570001A680B4B1B6813440A4A1360084B00224D
:104580001A60FB89084A1A44BB898121786800F0C7
:10459000D5FB002318461037BD4680BD60010020C2
:1045A0005C01002058010020BC08002080B584B0C8
:1045B00000AF78600B46FB70FA78796813469B0071
:1045C0001344DB000B4403F562731B68FB810A4B49
:1045D0001B69FA891146094898477B68D3F8EC357E
:1045E00040331B88054A0121786800F065FB0023F1
:1045F00018461037BD4680BDA40000207408002076
:1046000080B582B000AF7860084B1B685A1C074920
:104610000A60052B05D1054B00221A60786800F06E
:1046200007F8002318460837BD4680BD6801002002
:1046300080B584B000AF7860384B1B78012B69D00F
:10464000374B1B68B3F5006F02D1354B00221A605F
:10465000334B1A68334B1B689A4203D12F4B00220D
:104660001A7057E02E4B1A682E4B1B689A4206D9D7
:104670002B4B1B68C3F500632B4A136006E0294BE4
:104680001A68274B1B68D31A274A13607B68D3F834
:10469000EC3539331B881A46234B1B689A421ED2CD
:1046A0001F4B1B68FB817B68D3F8EC35B3F83930BE
:1046B000BB817B68D3F8EC3539331B881A46184B1D
:1046C0001B681344164A1360174B1B687A68D2F8AC
:1046D000EC25393212889B1A134A13600FE0104BF5
:1046E0001B68FB81104B1B68BB810D4B1A680E4B7E
:1046F0001B6813440A4A13600B4B00221A60074BD5
:1047000001221A70FB89094A1A44BB898121786801
:1047100000F014FB1037BD4680BD00BF60010020D3
:1047200058010020540100205C010020BC0800203A
:1047300080B483B000AF03463960FB713B6843220D
:104740001A80034B18460C37BD4680BC704700BF2B
:10475000CC00002080B483B000AF03463960FB7109
:1047600097F90730002B0BDA0D49FB7903F00F03A3
:10477000043B3A68D2B21201D2B20B441A7609E075
:10478000084997F907303A68D2B21201D2B20B4405
:1047900083F8002300BF0C37BD4680BC704700BFC4
:1047A00000ED00E000E100E080B582B000AF78608D
:1047B0007B68B3F1807F01D3012311E00A4A7B6853
:1047C00023F07F43013B53600F214FF0FF30FFF791
:1047D000C1FF054B00229A60034B07221A60002399
:1047E00018460837BD4680BD10E000E080B584B0B3
:1047F00002AF01210820FDF72BFC4FF470433B6012
:1048000001233B710023BB7101237B710023FB71EA
:104810003B4619460E48FDF741FF0E4B1B680E4AFA
:10482000A2FB03239B091846FFF7BEFF0346002B9C
:1048300001D000F01BF8094B0093094B094A0121F4
:104840000948FDF7C1F800BF0837BD4680BD00BF6D
:10485000000C0240B8000020D34D62100000002080
:10486000140100205C0000207401002080B483B09B
:1048700000AF0123FB8000233B6000BF3B685A1C54
:104880003A600B4A9342F9D90A4AFB881B039BB250
:104890005383FB885B00FB80FB880F2B01D901232E
:1048A000FB80044AFB881B039BB21383E3E700BF32
:1048B0001FA10700000C024080B400AF084B1B682A
:1048C0000133074A1360074B1B68002B04D0054BCC
:1048D0001B68013B034A136000BFBD4680BC7047A4
:1048E0006C0100207001002080B400AF00BFBD4605
:1048F00080BC704780B500AFFFF7B8FF00BF80BD38
:1049000080B500AFFFF7B2FF00BF80BD80B500AF3C
:10491000FFF7ACFF00BF80BD80B500AFFFF7A6FF7B
:1049200000BF80BD80B400AF00BFBD4680BC7047F3
:1049300080B400AF00BFBD4680BC704780B400AFFC
:1049400000BFBD4680BC704780B500AF0248FEF78F
:1049500091FF00BF80BD00BF7401002080B500AF93
:104960000A4B9B7A002B0AD0094A094B1B6823F09B
:1049700006031360FEF7AAF80448FCF751FD4FF454
:10498000802000F007F800BF80BD00BF7401002048
:1049900010ED00E080B483B000AF7860034A7B681C
:1049A000536100BF0C37BD4680BC7047003C0140DE
:1049B00080B483B000AF7860054A7B6843F0BF6382
:1049C00043F40033D36000BF0C37BD4680BC704752
:1049D00000ED00E080B485B000AF78600023FB7389
:1049E0000023BB730F237B737B68DB78002B38D0ED
:1049F000264BDB68DB4303F4E0631B0AFB73FB7BA2
:104A0000C3F10403BB737A7BFB7B42FA03F37B7332
:104A10007B685B781A46BB7B02FA03F3FB737B6807
:104A20009A787B7B1340DAB2FB7B1343FB73FB7BEF
:104A30001B01FB73164A7B681B781344FA7B83F8CF
:104A40000023134A7B681B785B09DBB218467B683E
:104A50001B7803F01F03012101FA03F342F8203011
:104A60000FE00B497B681B785B09DBB218467B685B
:104A70001B7803F01F0301229A4000F1200341F844
:104A8000232000BF1437BD4680BC704700ED00E016
:104A900000E100E080B584B000AF78600B46FB70A9
:104AA000FB7819467868FBF73FFC7B68012283F8A6
:104AB00012217B68002283F813210023FB6023E08E
:104AC000FA6813469B001344DB0003F58C737A6885
:104AD0001344BB60BB6801225A70FB68DAB2BB6842
:104AE0001A70FB689AB2BB68DA80BB680022DA7081
:104AF000BB6840229A60BB680022DA60BB68002273
:104B00005A61FB680133FB607B685B781A46FB687F
:104B10009A42D5D80023FB6023E0FA6813469B0035
:104B20001344DB0003F55C737A681344BB60BB6815
:104B300000225A70FB68DAB2BB681A70FB689AB23E
:104B4000BB68DA80BB680022DA70BB6840229A60DA
:104B5000BB680022DA60BB6800225A61FB6801333F
:104B6000FB607B685B781A46FB689A42D5D8786808
:104B7000FBF79CFD7868FBF791FC00217868FBF758
:104B80001BFE7868FBF79AFE7868FBF775FD00BF9F
:104B90001037BD4680BD00BF80B584B000AF7860DF
:104BA000084611461A460346FB700B463B801346E7
:104BB000BB7097F90330002B0CDAFB7803F07F020F
:104BC00013469B001344DB0003F58C737A6813448F
:104BD000FB600BE0FB7803F07F0213469B0013445D
:104BE000DB0003F55C737A681344FB60FB7803F029
:104BF0007F03DAB2FB681A7097F90330DBB2DB0986
:104C0000DBB21A46FB685A703A88FB689A60FB6808
:104C1000BA78DA70FB685B78002B04D0FB681B78ED
:104C20009AB2FB68DA80BB78022B02D1FB680022C3
:104C30001A71F9687868FCF71DF8002318461037D8
:104C4000BD4680BD80B584B000AF78600B46FB7078
:104C500097F90330002B0CDAFB7803F07F02134640
:104C60009B001344DB0003F58C737A681344FB60EC
:104C70000BE0FB7803F07F0213469B001344DB003C
:104C800003F55C737A681344FB60FB7803F07F03E1
:104C9000DAB2FB681A7097F90330DBB2DB09DBB2DA
:104CA0001A46FB685A70F9687868FCF751F80023D7
:104CB00018461037BD4680BD80B586B000AFF8609D
:104CC0007A601A460B46FB7213463B81FB7A03F06F
:104CD0007F0213469B001344DB0003F55C73FA6804
:104CE00013447B617B697A68DA603A897B695A612F
:104CF0007B6900229A617B6900225A70FB7A03F07B
:104D00007F03DAB27B691A70FB68DB78012B02D172
:104D10007A687B691A617B691B78002B04D17969F9
:104D2000F868FCF799F903E07969F868FCF754F83A
:104D3000002318461837BD4680BD00BF80B586B039
:104D400000AFF8607A603B600B46FB72FB7A03F0C1
:104D50007F0213469B001344DB0003F58C73FA6853
:104D600013447B617B6901225A70FB7A03F07F0355
:104D7000DAB27B691A707B697A68DA607A687B6973
:104D80001A617B6900229A617B693A685A617B6982
:104D90001B78002B04D17969F868FCF75DF903E012
:104DA0007969F868FCF718F8002318461837BD46EB
:104DB00080BD00BF80B584B000AF78600B46FB704B
:104DC00097F90330002B0CDAFB7803F07F021346CF
:104DD0009B001344DB0003F58C737A681344FB607B
:104DE00009E0FA7813469B001344DB0003F55C737B
:104DF0007A681344FB60FB6801229A70FB7803F029
:104E00007F03DAB2FB681A7097F90330DBB2DB0973
:104E1000DBB21A46FB685A70F9687868FCF706FA44
:104E2000002318461037BD4680BD00BF80B584B052
:104E300000AF78600B46FB7097F90330002B0CDA5B
:104E4000FB7803F07F0213469B001344DB0003F55D
:104E50008C737A681344FB6009E0FA7813469B0070
:104E60001344DB0003F55C737A681344FB60FB6852
:104E700000229A70FB7803F07F03DAB2FB681A70A5
:104E800097F90330DBB2DB09DBB21A46FB685A70D4
:104E9000F9687868FCF70CFA002318461037BD460D
:104EA00080BD00BF80B485B000AF78600B46FB705A
:104EB0000023FB60FB7803F07F03DAB2BB8962F367
:104EC0000A13BB817B681B697A6812691168FA68EA
:104ED0000A431A6000BF1437BD4680BC704700BF4C
:104EE00080B586B000AFF860B9601346FB80002340
:104EF000FB75FA88FB68C3F83821FA88FB68C3F8A9
:104F00003421FB68022283F81121FB88BA68002152
:104F1000F868FFF713FFFB7D18461837BD4680BDC4
:104F200080B586B000AFF860B9601346FB800023FF
:104F3000FB75FB88BA680021F868FFF7FFFEFB7D70
:104F400018461837BD4680BD80B586B000AFF86002
:104F5000B9601346FB800023FB75FA88FB68C3F831
:104F60009023FA88FB68C3F88C23FB68032283F83C
:104F70001121FB88BA680021F868FFF79DFEFB7DD0
:104F800018461837BD4680BD80B586B000AFF860C2
:104F9000B9601346FB800023FB75FB88BA680021CB
:104FA000F868FFF789FEFB7D18461837BD4680BDBF
:104FB00080B584B000AF78600023FB737B68042267
:104FC00083F811210023002200217868FFF7B6FE44
:104FD0007868FCF7EDF9FB7B18461037BD4680BDBD
:104FE00080B584B000AF78600023FB737B68052236
:104FF00083F811210023002200217868FFF75CFE6E
:105000007868FCF7D5F9FB7B18461037BD4680BDA4
:1050100080B485B000AF786039600023FB817B6885
:105020001B88FB817B68284A934213D07B68274A00
:1050300093420FD07B68B3F1804F0BD07B68244A3A
:10504000934207D07B68234A934203D07B68224A6D
:10505000934208D1FB8923F07003FB813B685A8897
:10506000FB891343FB817B681C4A93420CD07B680D
:105070001B4A934208D0FB8923F44073FB813B68B1
:105080001A89FB891343FB817B68FA891A803B6884
:105090005A687B68DA623B681A887B681A857B6885
:1050A000094A934203D07B68084A934204D13B6883
:1050B0009B7A9AB27B681A867B6801229A8200BF2B
:1050C0001437BD4680BC7047000001400004014019
:1050D0000004004000080040000C004000100040A8
:1050E0000014004080B483B000AF786039607B6802
:1050F0003A685A6200BF0C37BD4680BC704700BF9B
:1051000080B483B000AF78600B46FB70FB78002B57
:1051100008D07B681B889BB243F001039AB27B687E
:105120001A8007E07B681B889BB223F001039AB2C8
:105130007B681A8000BF0C37BD4680BC704700BF3B
:1051400080B485B000AF78600B467B800023FB7392
:105150007B681B8A9AB27B8813409BB2002B02D0DB
:105160000123FB7301E00023FB73FB7B184614371C
:10517000BD4680BC704700BF80B483B000AF78608C
:105180000B467B807B689B889BB223F070039AB2AE
:105190007B689A807B689B889AB27B8813439AB21B
:1051A0007B689A8000BF0C37BD4680BC704700BF4B
:1051B000416C61726D200D0A00000000FF070000C5
:1051C000310800006308000096080000C8080000CD
:1051D000FA0800002B0900005D0900008E0900009C
:1051E000C0090000F0090000210A0000510A000077
:1051F000810A0000B10A0000E00A00000E0B000066
:105200003D0B00006A0B0000970B0000C40B000070
:10521000F00B00001B0C0000460C0000700C00009E
:105220009A0C0000C20C0000EA0C0000120D0000F5
:10523000380D00005E0D0000820D0000A60D00007C
:10524000CA0D0000EC0D00000D0E00002D0E000038
:105250004D0E00006B0E0000890E0000A50E000030
:10526000C00E0000DB0E0000F40E00000C0F00006A
:10527000230F0000390F00004E0F0000620F0000E6
:10528000750F0000860F0000970F0000A60F0000AA
:10529000B40F0000C10F0000CC0F0000D70F0000BA
:1052A000E00F0000E80F0000EF0F0000F40F000017
:1052B000F80F0000FC0F0000FD0F0000FE0F0000C3
:1052C000FD0F0000FC0F0000F80F0000F40F0000BD
:1052D000EF0F0000E80F0000E00F0000D70F000004
:1052E000CC0F0000C10F0000B40F0000A60F00009B
:1052F000970F0000860F0000750F0000620F00007E
:105300004E0F0000390F0000230F00000C0F0000AB
:10531000F40E0000DB0E0000C00E0000A50E000021
:10532000890E00006B0E00004D0E00002D0E0000D7
:105330000D0E0000EC0D0000CA0D0000A60D0000CF
:10534000820D00005E0D0000380D0000120D0000FF
:10535000EA0C0000C20C00009A0C0000700C000067
:10536000460C00001B0C0000F00B0000C40B0000FA
:10537000970B00006A0B00003D0B00000E0B0000B5
:10538000E00A0000B10A0000810A0000510A000092
:10539000210A0000F0090000C00900008E09000089
:1053A0005D0900002B090000FA080000C808000091
:1053B000960800006308000031080000FF070000A5
:1053C000CD0700009B0700006807000036070000BB
:1053D00004070000D3060000A106000070060000CC
:1053E0003E0600000E060000DD050000AD050000D1
:1053F0007D0500004D0500001E050000F0040000C2
:10540000C104000094040000670400003A04000096
:105410000E040000E3030000B80300008E03000048
:10542000640300003C03000014030000EC020000D1
:10543000C6020000A00200007C020000580200002A
:105440003402000012020000F1010000D10100004E
:10545000B101000093010000750100005901000036
:105460003E010000230100000A010000F2000000DC
:10547000DB000000C5000000B00000009C00000040
:10548000890000007800000067000000580000005C
:105490004A0000003D00000032000000270000002C
:1054A0001E000000160000000F0000000A000000AF
:1054B00006000000020000000100000000000000E3
:1054C0000100000002000000060000000A000000C9
:1054D0000F000000160000001E0000002700000062
:1054E000320000003D0000004A00000058000000AB
:1054F0006700000078000000890000009C000000A8
:10550000B0000000C5000000DB000000F200000059
:105510000A010000230100003E01000059010000C3
:105520007501000093010000B1010000D1010000ED
:10553000F1010000120200003402000058020000D5
:105540007C020000A0020000C6020000EC02000085
:10555000140300003C030000640300008E030000FD
:10556000B8030000E30300000E0400003A0400004A
:105570006704000094040000C1040000F00400006F
:105580001E0500004D0500007D050000AD05000072
:10559000DD0500000E0600003E060000700600005B
:1055A000A1060000D3060000040700003607000033
:1055B000680700009B070000CD0700000000000006
:1055C000100000002000000030000000400000003B
:1055D000500000006000000070000000800000002B
:1055E00090000000A0000000B0000000C00000001B
:1055F000D0000000E0000000F0000000000100000A
:1056000010010000200100003001000040010000F6
:1056100050010000600100007001000080010000E6
:1056200090010000A0010000B0010000C0010000D6
:10563000D0010000E0010000F001000000020000C5
:1056400010020000200200003002000040020000B2
:1056500050020000600200007002000080020000A2
:1056600090020000A0020000B0020000C002000092
:10567000D0020000E0020000F00200000003000081
:10568000100300002003000030030000400300006E
:10569000500300006003000070030000800300005E
:1056A00090030000A0030000B0030000C00300004E
:1056B000D0030000E0030000F0030000000400003D
:1056C000100400002004000030040000400400002A
:1056D000500400006004000070040000800400001A
:1056E00090040000A0040000B0040000C00400000A
:1056F000D0040000E0040000F004000000050000F9
:1057000010050000200500003005000040050000E5
:1057100050050000600500007005000080050000D5
:1057200090050000A0050000B0050000C0050000C5
:10573000D0050000E0050000F005000000060000B4
:1057400010060000200600003006000040060000A1
:105750005006000060060000700600008006000091
:1057600090060000A0060000B0060000C006000081
:10577000D0060000E0060000F00600000007000070
:10578000100700002007000030070000400700005D
:10579000500700006007000070070000800700004D
:1057A00090070000A0070000B0070000C00700003D
:1057B000D0070000E0070000F0070000000800002C
:1057C0000F0800001F0800002F0800003F0800001D
:1057D0004F0800005F0800006F0800007F0800000D
:1057E0008F0800009F080000AF080000BF080000FD
:1057F000CF080000DF080000EF080000FF080000ED
:105800000F0900001F0900002F0900003F090000D8
:105810004F0900005F0900006F0900007F090000C8
:105820008F0900009F090000AF090000BF090000B8
:10583000CF090000DF090000EF090000FF090000A8
:105840000F0A00001F0A00002F0A00003F0A000094
:105850004F0A00005F0A00006F0A00007F0A000084
:105860008F0A00009F0A0000AF0A0000BF0A000074
:10587000CF0A0000DF0A0000EF0A0000FF0A000064
:105880000F0B00001F0B00002F0B00003F0B000050
:105890004F0B00005F0B00006F0B00007F0B000040
:1058A0008F0B00009F0B0000AF0B0000BF0B000030
:1058B000CF0B0000DF0B0000EF0B0000FF0B000020
:1058C0000F0C00001F0C00002F0C00003F0C00000C
:1058D0004F0C00005F0C00006F0C00007F0C0000FC
:1058E0008F0C00009F0C0000AF0C0000BF0C0000EC
:1058F000CF0C0000DF0C0000EF0C0000FF0C0000DC
:105900000F0D00001F0D00002F0D00003F0D0000C7
:105910004F0D00005F0D00006F0D00007F0D0000B7
:105920008F0D00009F0D0000AF0D0000BF0D0000A7
:10593000CF0D0000DF0D0000EF0D0000FF0D000097
:105940000F0E00001F0E00002F0E00003F0E000083
:105950004F0E00005F0E00006F0E00007F0E000073
:105960008F0E00009F0E0000AF0E0000BF0E000063
:10597000CF0E0000DF0E0000EF0E0000FF0E000053
:105980000F0F00001F0F00002F0F00003F0F00003F
:105990004F0F00005F0F00006F0F00007F0F00002F
:1059A0008F0F00009F0F0000AF0F0000BF0F00001F
:1059B000CF0F0000DF0F0000EF0F000053544D33F6
:1059C00032205669727475616C20436F6D506F722E
:1059D0007420696E204853206D6F646500000000DC
:1059E00053544D3332205669727475616C20436F85
:1059F0006D506F727420696E204653204D6F646540
:105A00000000000053544D6963726F656C656374E8
:105A1000726F6E6963730000303030303030303078
:105A2000303530420000000030303030303030301F
:105A3000303530430000000056435020436F6E66FF
:105A40006967000056435020496E74657266616351
:025A50006500EF
:105A52007514000881140008A9140008CD14000868
:105A6200D9140008B5140008C1140008A11A0008CE
:105A72006D1B0008351A0008FD1C0008711C000887
:105A8200D91C0008B51C0008811D0008A11D0008D2
:105A920000000000000000001C00002000000000C8
:105AA2000102030401020304060708093525000860
:105AB20059250008BD2500087D250008E5250008B8
:105AC200252600086126000812010002000000409D
