:020000040800F2
:100000000008002035020008910200089102000853
:10001000910200089102000891020008000000000F
:100020000000000000000000000000009102000835
:1000300091020008000000009102000891020008EF
:100040009102000891020008910200089102000844
:100050009102000891020008910200089102000834
:100060009102000891020008910200089102000824
:100070009102000891020008910200089102000814
:100080009102000891020008910200089102000804
:1000900091020008910200089102000891020008F4
:1000A00091020008910200089102000891020008E4
:1000B00091020008910200089102000891020008D4
:1000C00091020008910200089102000891020008C4
:1000D00091020008910200089102000891020008B4
:1000E00091020008910200089102000891020008A4
:1000F0009102000891020008910200089102000894
:100100009102000891020008910200089102000883
:100110009102000891020008910200089102000873
:100120009102000891020008910200089102000863
:100130009102000891020008910200089102000853
:100140009102000891020008910200089102000843
:100150009102000891020008910200089102000833
:100160009102000891020008910200089102000823
:100170009102000891020008910200089102000813
:10018000910200089102000880B485B000AF786049
:1001900039600023FB600023BB60134B1B68FB60CE
:1001A00040F6FE727B6802FA03F3DB43FA68134001
:1001B000FB603B681A683B685B681A433B689B6856
:1001C0001A433B68DB681343BB60BA687B6802FA7A
:1001D00003F3FA681343FB60034AFB68136000BF34
:1001E0001437BD4680BC70470074004080B483B0B3
:1001F00000AF78600B46FB70FB78002B09D00C49F0
:100200000B4B1A6801207B6800FA03F313430B6061
:1002100009E00749064B1A6801207B6800FA03F3DE
:10022000DB4313400B6000BF0C37BD4680BC7047FA
:100230000074004080B582B000AF104B7B60104B63
:100240003B6007E03B681A1D3A607A68111D7960CF
:1002500012681A603B680B4A9342F3D30A480B4971
:100260004FF000028842B8BF40F8042BFADB00F0E0
:1002700013F800BF0837BD4680BD00BF2C0700083B
:1002800000000020000000200000002000000020EE
:1002900080B400AFFEE700BF80B586B000AF00F0CD
:1002A0009DF90121082000F07BF80121102000F0C9
:1002B00077F80121012000F073F80121042000F0FB
:1002C0006FF801214FF0005000F088F801214FF441
:1002D000807000F0A1F84FF470433B6101233B753F
:1002E0000023BB7503237B750023FB7507F1100307
:1002F0001946284800F0AEF814233B6100233B75F3
:1003000003237B750023FB7507F110031946224870
:1003100000F0A0F800233B6000237B600023BB605B
:100320000023FB603B4619460020FFF72DFF01210B
:100330000020FFF75BFF8021184800F019F9034601
:10034000012B0AD14FF40041124800F02BF94FF471
:100350000041104800F034F904E04FF400410D482A
:1003600000F02EF940210D4800F002F90346012B60
:100370000AD14FF40051074800F014F94FF400512E
:10038000044800F01DF9D6E74FF40051014800F091
:1003900017F9D0E7000C02400000024000080240BC
:1003A00080B483B000AF78600B46FB70FB78002B05
:1003B00006D00949084B1A6B7B6813430B6306E0B0
:1003C0000549054B1A6B7B68DB4313400B6300BF89
:1003D0000C37BD4680BC70470038024080B483B003
:1003E00000AF78600B46FB70FB78002B06D0094904
:1003F000084B1A6C7B6813430B6406E00549054BF8
:100400001A6C7B68DB4313400B6400BF0C37BD469E
:1004100080BC70470038024080B483B000AF786081
:100420000B46FB70FB78002B06D00949084B5A6C31
:100430007B6813434B6406E00549054B5A6C7B68A7
:10044000DB4313404B6400BF0C37BD4680BC704794
:100450000038024080B487B000AF78603960002374
:100460007B6100233B610023FB6000237B6176E01E
:1004700001227B6902FA03F33B613B681A683B691E
:100480001340FB60FA683B699A4265D17B681A6841
:100490007B695B00032101FA03F3DB431A407B68AD
:1004A0001A607B681A683B681B7919467B695B0098
:1004B00001FA03F31A437B681A603B681B79012B2E
:1004C00003D03B681B79022B2ED17B689A687B692D
:1004D0005B00032101FA03F3DB431A407B689A6057
:1004E0007B689A683B685B7919467B695B0001FA17
:1004F00003F31A437B689A607B685A687B699BB2F6
:10050000012101FA03F3DB431A407B685A607B68E0
:100510005A683B689B7919467B699BB201FA03F3E1
:100520009BB21A437B685A607B68DA687B699BB22E
:100530005B00032101FA03F3DB431A407B68DA60B6
:100540007B68DA683B68DB7919467B695B0001FAF6
:1005500003F31A437B68DA607B6901337B617B6953
:100560000F2B85D900BF1C37BD4680BC704700BF2C
:1005700080B485B000AF78600B467B800023FB73AE
:100580007B681A697B881340002B02D00123FB7320
:1005900001E00023FB73FB7B18461437BD4680BC8B
:1005A000704700BF80B483B000AF78600B467B809B
:1005B0007B687A881A8300BF0C37BD4680BC7047C1
:1005C00080B483B000AF78600B467B807B687A880C
:1005D0005A8300BF0C37BD4680BC704780B500AF62
:1005E000124A124B1B6843F0010313600F4B0022A9
:1005F0009A600E4A0D4B1B6823F0847323F48033FA
:1006000013600A4B0A4A5A60084A084B1B6823F4D5
:1006100080231360054B0022DA6000F00DF8054BD3
:100620004FF000629A6000BF80BD00BF00380240FA
:100630001030002400ED00E080B483B000AF002350
:100640007B6000233B60354A344B1B6843F48033A6
:100650001360324B1B6803F400333B607B6801334B
:100660007B603B68002B03D17B68B3F5A06FF0D1B2
:100670002A4B1B6803F40033002B02D001233B609C
:1006800001E000233B603B68012B42D1234A234B0E
:100690001B6C43F080531364214A214B1B6843F4C5
:1006A000804313601D4A1D4B9B6893601B4A1B4B84
:1006B0009B6843F400439360184A184B9B6843F4CB
:1006C000A0539360154B174A5A60144A134B1B688A
:1006D00043F08073136000BF104B1B6803F000737E
:1006E000002BF9D0104B40F205621A600B4A0B4BFD
:1006F0009B6823F003039360084A084B9B6843F010
:100700000203936000BF054B9B6803F00C03082BAA
:10071000F9D100BF0C37BD4680BC7047003802409D
:0C0720000070004008544007003C0240FC
:0400000508000000EF
:00000001FF
